:020000021000EC
:10F800000C9446FC0C9465FC0C9465FC0C9465FC13
:10F810000C9465FC0C9465FC0C9465FC0C9465FCE4
:10F820000C9465FC0C9465FC0C9465FC0C9465FCD4
:10F830000C9465FC0C9465FC0C9465FC0C9465FCC4
:10F840000C9465FC0C9465FC0C9465FC0C9465FCB4
:10F850000C9465FC0C9465FC0C9465FC0C9465FCA4
:10F860000C9465FC0C9465FC0C9465FC0C9465FC94
:10F870000C9465FC0C9465FC0C9465FC0C9465FC84
:10F880000C9465FC0C9465FC0C9465FC11241FBE63
:10F89000CFEFD0E1DEBFCDBF11E0A0E0B1E0EEE6FA
:10F8A000FDEF01E00BBF02C007900D92A235B1073A
:10F8B000D9F712E0A2E5B1E001C01D92AC35B10765
:10F8C000E1F70E9414FD0C94B6FE0C9400FCAF927C
:10F8D000BF92CF92DF92EF92FF920F931F93CF933D
:10F8E000DF936C01E0905501F090560100915701B3
:10F8F0001091580183E0F70100935B00809368004A
:10F90000E8958091680080FDFCCF10925B02109218
:10F910005A0256010894A11CB11C1FC0F601EC0F3D
:10F92000FD1F6081F501EC0FFD1F8081A1E09E01AC
:10F9300040E050E090E0982F882770E0862B972BCE
:10F940000C01F90140935B00A0936800E895112435
:10F950002296D0935B02C0935A02C0915A02D09172
:10F960005B02CF3FD105D1F2C8F285E0F7010093E9
:10F970005B0080936800E8958091680080FDFCCF73
:10F98000DF91CF911F910F91FF90EF90DF90CF907B
:10F99000BF90AF90089581E180936800E895E0E022
:10F9A000F0E0099508958CB95E9BFECF5E9A0895AC
:10F9B0005F9BFECF8CB190E00895CF93DF93EC0175
:10F9C00003C021960E94D3FC88818823D1F78DE063
:10F9D0000E94D3FC8AE00E94D3FCDF91CF9108956E
:10F9E000FC0160E870E020E030E0808190E0982F3A
:10F9F00088278227932748E09C01220F331F97FF17
:10FA000004C081E290E1282739274150C901A1F7BC
:10FA10006150704011F03196E8CF832F9927809381
:10FA20005902209354010895AF92BF92CF92DF9272
:10FA3000EF92FF920F931F93CF93DF93F89488E197
:10FA400090E02EE00FB6F894A89581BD0FBE21BDC1
:10FA500082E49FE09BBD8ABD1FBC8DE08EBDD69A1F
:10FA60001BB888E18AB986E08093950010929000D7
:10FA700089E189B98BE191E00E94DDFC109254018B
:10FA800019E1C9E2D1E0A89506B604FE12C086B716
:10FA9000806186BF809154018530F1F08BB390E492
:10FAA00089278BBB115029F4CE010E94DDFC0E94F6
:10FAB000CBFC5F9BE8CF8CB120915401E22FF0E0AA
:10FAC000EA5EFE4F9081891721F42F5F2093540145
:10FAD000DACF10925401D7CF8FE291E00E94DDFC83
:10FAE00014E6C9E2D1E006B604FE11C086B7806113
:10FAF00086BF83E40E94D3FC8BB390E489278BBB41
:10FB0000115029F4CE010E94DDFC0E94CBFCA89587
:10FB10005F9BE9CF8CB1813031F71EBC109253014D
:10FB200010925201109255011092560110925701F5
:10FB300010925801DD24CC2409E5A02E01E0B02E5E
:10FB4000C3945F9BFECF9CB1909359025F9BFECF05
:10FB50008CB1809580935401C91609F0D5C0C816A0
:10FB600009F0D2C02091520130915301F901E75AB6
:10FB7000FE4F90E85F9BFECF8CB181939150D1F7FF
:10FB8000C90180589F4F90935301809352015F9B0E
:10FB9000FECF1CB15F9BFECF0CB187529F4F0E94DE
:10FBA000F0FC80915902181709F0AEC08091540101
:10FBB000081709F0A9C08091550190915601A091B4
:10FBC0005701B09158018050984FA140B040F8F4CF
:10FBD00080915201909153018F3F9105E1F0D8F04F
:10FBE000C5010E9467FC8091550190915601A0913A
:10FBF0005701B091580180509F4FAF4FBF4F809336
:10FC0000550190935601A0935701B093580110925B
:10FC10005301109252018091520190915301892B0E
:10FC200009F068C02091550130915601409157016B
:10FC300050915801203088EF380781E0480780E074
:10FC4000580708F057C081E180936800E89581E08B
:10FC50008093540110925B0210925A02E50160E019
:10FC600070E0E12C1FEFF12E1FEF012F1FEF112F7E
:10FC7000E20EF31E041F151F18C0CB01A0E0B0E078
:10FC80008E0D9F1DA01FB11FABBFFC018791299155
:10FC9000AB014F5F5F4F821739F070935B02609347
:10FCA0005A021092540109C0BA016F3F710529F33D
:10FCB00020F370935B0260935A0280915401882371
:10FCC000C9F485E10E94D3FCD394809155019091B1
:10FCD0005601A0915701B091580180509140A04029
:10FCE000B0408093550190935601A0935701B09373
:10FCF000580104C086E00E94D3FCDD24A8958BB394
:10FD000090E489278BBB04C085E10E94D3FCD39487
:10FD10002EE12D1530F05F9BFECF8CB1843009F0C1
:10FD20000FCF86E00E94D3FC80E091E00E94DDFCD2
:10FD3000DD2029F087E491E00E94DDFCFFCF8DE318
:10FD400091E00E94DDFC8DE091E00E94DDFC0E94CC
:10FD5000CBFC80E090E0DF91CF911F910F91FF905D
:0EFD6000EF90DF90CF90BF90AF900895FFCF4F
:10FD6E00B2BBD6AAB5C0B2BBD6AAB5C000B2BBD67E
:10FD7E00AAB5C0B0A1004156525542B5C8B4FDBD9A
:10FD8E00D3CAD5C3DCC2EB2E00B3ACCAB12E00B5BC
:10FD9E00C8B4FDBDD3CAD5CAFDBEDD2E00C9FDBC9B
:10FDAE00B6B3C9B9A62E00C9FDBCB6CAA7B0DC2E23
:02FDBE00000043
:040000031000F800F1
:00000001FF
