:020000021000EC
:04E000000C9462F02A
:10E004000C9400F00C9400F00C9400F00C9400F0CC
:10E014000C9400F00C9400F00C9400F00C9400F0BC
:10E024000C9400F00C9400F00C9400F00C9400F0AC
:10E034000C9400F00C9400F00C9400F00C9400F09C
:10E044000C9400F00C9400F00C9400F00C9400F08C
:10E054000C9400F00C9400F00C9400F00C9400F07C
:10E064000C9400F00C9400F00C9400F00C9400F06C
:10E074000C9400F00C9400F00C9400F00C9400F05C
:10E084000C9400F00C9400F05479706520276427F8
:10E0940020646F776E6C6F61642C204F74686572B6
:10E0A400732072756E206170702E0A0D00001027A7
:10E0B400E80364000A0001000010000110000100E0
:10E0C400F894EE27ECBBF1E0F5BFF2E0F5BFE09386
:10E0D4006C00F8E1F1BDE1BD8DE0A2E0BB27ED935A
:10E0E4008A95E9F780E090E1A0E0B1E0ED93019733
:10E0F400E9F781E08BBFEFEFEDBFE0E1EEBFC0E0F9
:10E10400D5E00C944DF1E0E0EBBFE981FA81488160
:10E1140040936800E89523960895EA81FB8108807E
:10E12400198041E040936800E89555C0E09168008B
:10E13400E07449F0E0916800E170E1F7E1E1E09317
:10E144006800E895F3CF08951A930A930E9411F298
:10E15400E3E0EA93D8DFEADF00E010E00030E1E03A
:10E164001E07A8F41A930A93A0E0B5E0A00FB11F0C
:10E17400AC91BB27F801EF5FFA4FF081E0E0EA2BA6
:10E18400FB2BFA93EA93C9DF0E5F1F4FE7CF0E9480
:10E1940011F2E5E0EA93B7DFC9DF3BC05D9BFECF38
:10E1A400E881ECB9219608951A930A9300E010E0EF
:10E1B400F801AA81BB81EA0FFB1FE691E03049F028
:10E1C400F8010F5F1F4FEA0FFB1FE691EA93E6DFAA
:10E1D400EFCF19810881249608951A930A935F99C1
:10E1E40003C0EFEFFFEF15C01BB10CB1E12FEC71D1
:10E1F40019F0EFEFFFEF0DC0E02FF0E00AC01A9323
:10E204000A93EBDF8F01EFEFFFEFE017F107C9F39C
:10E21400E02F0991199108950E9418F200E010E08E
:10E2240020E02F5FAC81A217D8F0AD81BE81ED91C3
:10E23400AD83BE83FE2FE0E00E271F2738E017FFD3
:10E2440009C0F801EE0FFF1FA1E2B0E1EA27FB27A6
:10E254008F0102C0000F111F3150303081F7E1CF20
:10E26400F8010E941DF227960895EFE4EA9396DFE1
:10E27400EBE4EA9393DFEDE0EA9390DFEAE0EA93DC
:10E284008DDF5D9BFECFE1E0E5BFE0E0E5BFEBBFE6
:10E294000C94000008952497E0E0EA83EB8300E007
:10E2A40010E020E030E051E0E9E1E9B9E0E0E0939A
:10E2B4009000E8E1EAB9EEE0E0939500E5E7E1BF1C
:10E2C400EFE0E3BFE0E0E2BFB89AC09AECE8F0EE1A
:10E2D400FA93EA9369DF81DFE436A0E0FA0779F084
:10E2E400E6B7E1FF0BC0F90131969F01E53FA1E0DC
:10E2F400FA0708F0BADFE6B7E260E6BFECCF6DDFFD
:10E30400E130A0E0FA0799F0E6B7E1FF0FC0F901A8
:10E3140031969F01E536A0E0FA0728F0E3E4EA939A
:10E324003DDF20E030E0E6B7E270E6BFE8CF67DF2C
:10E33400E51721F464DFE095E51709F05EC000E01D
:10E3440010E00038E0E01E0790F4EA81FB81E05021
:10E35400FB4FFF93EF9353DFAF91BF91EC93EA81AF
:10E36400FB813196EA83FB830F5F1F4FEACF47DFC0
:10E37400FE2FE0E0E883F98342DFA881B981F0E071
:10E38400EA2BFB2BE883F983EA81FB81E058F04018
:10E39400E050FB4FFA93EA93E0E8EA933DDFDF01B4
:10E3A400E881F981EA17FB0721F5AA81BB81A03036
:10E3B400E1E0BE07C8F0C8DEE0910006F091010676
:10E3C4006091020670910306E050FF4F6F4F7F4F3C
:10E3D400E0930006F093010660930206709303062F
:10E3E400E0E0EA83EB83E1CFE6E0EA93D7DE5F5F28
:10E3F40003C0E5E1EA93D2DE03C0E5E1EA93CEDEB1
:10E40400FEDEE43009F093CFE6E0EA93C7DEEA816A
:10E41400FB81309709F098DE28DF2496FFCFE09146
:10E424000006F0910106FA93EA9308953A932A9329
:10E434001A930A9308953B812A81198108810895CA
:00000001FF
